{
  "contractName": "MetaCoin",
  "abi": [
    {
      "inputs": [],
      "stateMutability": "nonpayable",
      "type": "constructor"
    },
    {
      "anonymous": false,
      "inputs": [
        {
          "indexed": true,
          "internalType": "address",
          "name": "_from",
          "type": "address"
        },
        {
          "indexed": true,
          "internalType": "address",
          "name": "_to",
          "type": "address"
        },
        {
          "indexed": false,
          "internalType": "uint256",
          "name": "_value",
          "type": "uint256"
        }
      ],
      "name": "Transfer",
      "type": "event"
    },
    {
      "inputs": [
        {
          "internalType": "address",
          "name": "receiver",
          "type": "address"
        },
        {
          "internalType": "uint256",
          "name": "amount",
          "type": "uint256"
        }
      ],
      "name": "sendCoin",
      "outputs": [
        {
          "internalType": "bool",
          "name": "sufficient",
          "type": "bool"
        }
      ],
      "stateMutability": "nonpayable",
      "type": "function"
    },
    {
      "inputs": [
        {
          "internalType": "address",
          "name": "addr",
          "type": "address"
        }
      ],
      "name": "getBalance",
      "outputs": [
        {
          "internalType": "uint256",
          "name": "",
          "type": "uint256"
        }
      ],
      "stateMutability": "view",
      "type": "function",
      "constant": true
    }
  ],
  "bytecode": "0x608060405234801561001057600080fd5b506127106000803273ffffffffffffffffffffffffffffffffffffffff1673ffffffffffffffffffffffffffffffffffffffff168152602001908152602001600020819055506104a3806100656000396000f3fe608060405234801561001057600080fd5b50600436106100365760003560e01c806390b98a111461003b578063f8b2cb4f1461006b575b600080fd5b610055600480360381019061005091906102a5565b61009b565b6040516100629190610303565b60405180910390f35b61008560048036038101906100809190610278565b610206565b604051610092919061031e565b60405180910390f35b6000816000803373ffffffffffffffffffffffffffffffffffffffff1673ffffffffffffffffffffffffffffffffffffffff1681526020019081526020016000205410156100ec5760009050610200565b816000803373ffffffffffffffffffffffffffffffffffffffff1673ffffffffffffffffffffffffffffffffffffffff168152602001908152602001600020600082825461013a919061038f565b92505081905550816000808573ffffffffffffffffffffffffffffffffffffffff1673ffffffffffffffffffffffffffffffffffffffff168152602001908152602001600020600082825461018f9190610339565b925050819055508273ffffffffffffffffffffffffffffffffffffffff163373ffffffffffffffffffffffffffffffffffffffff167fddf252ad1be2c89b69c2b068fc378daa952ba7f163c4a11628f55a4df523b3ef846040516101f3919061031e565b60405180910390a3600190505b92915050565b60008060008373ffffffffffffffffffffffffffffffffffffffff1673ffffffffffffffffffffffffffffffffffffffff168152602001908152602001600020549050919050565b60008135905061025d8161043f565b92915050565b60008135905061027281610456565b92915050565b60006020828403121561028e5761028d61043a565b5b600061029c8482850161024e565b91505092915050565b600080604083850312156102bc576102bb61043a565b5b60006102ca8582860161024e565b92505060206102db85828601610263565b9150509250929050565b6102ee816103d5565b82525050565b6102fd81610401565b82525050565b600060208201905061031860008301846102e5565b92915050565b600060208201905061033360008301846102f4565b92915050565b600061034482610401565b915061034f83610401565b9250827fffffffffffffffffffffffffffffffffffffffffffffffffffffffffffffffff038211156103845761038361040b565b5b828201905092915050565b600061039a82610401565b91506103a583610401565b9250828210156103b8576103b761040b565b5b828203905092915050565b60006103ce826103e1565b9050919050565b60008115159050919050565b600073ffffffffffffffffffffffffffffffffffffffff82169050919050565b6000819050919050565b7f4e487b7100000000000000000000000000000000000000000000000000000000600052601160045260246000fd5b600080fd5b610448816103c3565b811461045357600080fd5b50565b61045f81610401565b811461046a57600080fd5b5056fea2646970667358221220d47b6969dd72e3a196df4dcae25e07a1aeceebe35d69445b04e58485868ec78964736f6c63430008070033",
  "immutableReferences": {},
  "source": "// SPDX-License-Identifier: GPL-3.0\n\npragma solidity >=0.4.25 <0.9.0;\n\n// Contract name MetaCoin\ncontract MetaCoin {\n    // Key - Value map structure (address - amount)\n\tmapping (address => uint) balances;  \n\n    // Event that emits logs on smart contract calls. Logging: From, To and Value of the transfer transaction.\n\tevent Transfer(address indexed _from, address indexed _to, uint256 _value); \n\n    // Constructor of the smart contract that sets the balance of the creator to 10,000 coins.\n\tconstructor() {\n\t\tbalances[tx.origin] = 10000;\n\t}\n\n    // Function that send an amount of coins to a receiver account. \n    // Returns if the balance of the sender is sufficient for the transfer.\n\tfunction sendCoin(address receiver, uint amount) public returns(bool sufficient) {\n\t\tif (balances[msg.sender] < amount) return false;\n\t\tbalances[msg.sender] -= amount;\n\t\tbalances[receiver] += amount;\n\t\temit Transfer(msg.sender, receiver, amount);\n\t\treturn true;\n\t}\n\n    // Function that retrieves the balance of an account on the balances mapping.\n\tfunction getBalance(address addr) public view returns(uint) {\n\t\treturn balances[addr];\n\t}\n}\n",
  "sourcePath": "/Users/rafael.zavalaencora.com/Desktop/Blockchain/test-box/contracts/MetaCoin.sol",
  "compiler": {
    "name": "solc",
    "version": "0.8.7+commit.e28d00a7.Emscripten.clang"
  },
  "schemaVersion": "3.4.10",
  "updatedAt": "2022-11-29T17:08:21.668Z",
  "networkType": "ethereum",
  "devdoc": {
    "kind": "dev",
    "methods": {},
    "version": 1
  },
  "userdoc": {
    "kind": "user",
    "methods": {},
    "version": 1
  }
}