{
  "contractName": "TecV4",
  "abi": [
    {
      "inputs": [],
      "stateMutability": "nonpayable",
      "type": "constructor"
    },
    {
      "anonymous": false,
      "inputs": [
        {
          "indexed": false,
          "internalType": "string",
          "name": "newCertificate",
          "type": "string"
        }
      ],
      "name": "addCertificate",
      "type": "event"
    },
    {
      "anonymous": false,
      "inputs": [
        {
          "indexed": false,
          "internalType": "string",
          "name": "newSign",
          "type": "string"
        }
      ],
      "name": "addSign",
      "type": "event"
    },
    {
      "inputs": [
        {
          "internalType": "string",
          "name": "writterSign",
          "type": "string"
        },
        {
          "internalType": "string",
          "name": "userId",
          "type": "string"
        }
      ],
      "name": "newWritter",
      "outputs": [
        {
          "internalType": "uint256",
          "name": "",
          "type": "uint256"
        }
      ],
      "stateMutability": "nonpayable",
      "type": "function"
    },
    {
      "inputs": [
        {
          "internalType": "string",
          "name": "writterSign",
          "type": "string"
        },
        {
          "internalType": "string",
          "name": "writterId",
          "type": "string"
        }
      ],
      "name": "validateWritter",
      "outputs": [
        {
          "internalType": "bool",
          "name": "",
          "type": "bool"
        }
      ],
      "stateMutability": "view",
      "type": "function",
      "constant": true
    },
    {
      "inputs": [
        {
          "internalType": "string",
          "name": "writterId",
          "type": "string"
        },
        {
          "internalType": "string",
          "name": "writterSign",
          "type": "string"
        },
        {
          "internalType": "string",
          "name": "certificate",
          "type": "string"
        },
        {
          "internalType": "string",
          "name": "studentId",
          "type": "string"
        }
      ],
      "name": "newCertificate",
      "outputs": [
        {
          "internalType": "uint256",
          "name": "",
          "type": "uint256"
        }
      ],
      "stateMutability": "nonpayable",
      "type": "function"
    },
    {
      "inputs": [
        {
          "internalType": "string",
          "name": "studentId",
          "type": "string"
        },
        {
          "internalType": "string",
          "name": "certificate",
          "type": "string"
        }
      ],
      "name": "validateCertificate",
      "outputs": [
        {
          "internalType": "bool",
          "name": "",
          "type": "bool"
        }
      ],
      "stateMutability": "view",
      "type": "function",
      "constant": true
    },
    {
      "inputs": [
        {
          "internalType": "string",
          "name": "_a",
          "type": "string"
        },
        {
          "internalType": "string",
          "name": "_b",
          "type": "string"
        }
      ],
      "name": "stringsEqual",
      "outputs": [
        {
          "internalType": "bool",
          "name": "",
          "type": "bool"
        }
      ],
      "stateMutability": "pure",
      "type": "function",
      "constant": true
    }
  ],
  "bytecode": "0x608060405234801561001057600080fd5b50336000806101000a81548173ffffffffffffffffffffffffffffffffffffffff021916908373ffffffffffffffffffffffffffffffffffffffff16021790555060006002819055506000600481905550610b5d806100706000396000f3fe608060405234801561001057600080fd5b50600436106100575760003560e01c806313d199501461005c578063616cbe921461008c5780637876f912146100bc578063b6a859c2146100ec578063f507d3b81461011c575b600080fd5b61007660048036038101906100719190610635565b61014c565b6040516100839190610846565b60405180910390f35b6100a660048036038101906100a19190610635565b6101a5565b6040516100b39190610846565b60405180910390f35b6100d660048036038101906100d19190610635565b61025f565b6040516100e391906108a3565b60405180910390f35b61010660048036038101906101019190610635565b6102eb565b6040516101139190610846565b60405180910390f35b610136600480360381019061013191906106ad565b6103a5565b60405161014391906108a3565b60405180910390f35b60008160405160200161015f919061082f565b6040516020818303038152906040528051906020012083604051602001610186919061082f565b6040516020818303038152906040528051906020012014905092915050565b60006102576003836040516101ba919061082f565b908152602001604051809103902080546101d3906109e9565b80601f01602080910402602001604051908101604052809291908181526020018280546101ff906109e9565b801561024c5780601f106102215761010080835404028352916020019161024c565b820191906000526020600020905b81548152906001019060200180831161022f57829003601f168201915b50505050508461014c565b905092915050565b600081600184604051610272919061082f565b90815260200160405180910390209080519060200190610293929190610522565b5060016002546102a3919061093b565b6002819055507faab321d81776f20047df0499ea549a8f57ce15727acedd9ec3d67ee1c96f1435836040516102d89190610861565b60405180910390a1600254905092915050565b600061039d600184604051610300919061082f565b90815260200160405180910390208054610319906109e9565b80601f0160208091040260200160405190810160405280929190818152602001828054610345906109e9565b80156103925780601f1061036757610100808354040283529160200191610392565b820191906000526020600020905b81548152906001019060200180831161037557829003601f168201915b50505050508361014c565b905092915050565b60006104576001856040516103ba919061082f565b908152602001604051809103902080546103d3906109e9565b80601f01602080910402602001604051908101604052809291908181526020018280546103ff906109e9565b801561044c5780601f106104215761010080835404028352916020019161044c565b820191906000526020600020905b81548152906001019060200180831161042f57829003601f168201915b50505050508661014c565b610496576040517f08c379a000000000000000000000000000000000000000000000000000000000815260040161048d90610883565b60405180910390fd5b816003846040516104a7919061082f565b908152602001604051809103902090805190602001906104c8929190610522565b507f0a99e4f89170c15139306d876700e5f6a51f7989f8c0c17dd1f8d539afff358b836040516104f89190610861565b60405180910390a1600160045461050f919061093b565b6004819055506004549050949350505050565b82805461052e906109e9565b90600052602060002090601f0160209004810192826105505760008555610597565b82601f1061056957805160ff1916838001178555610597565b82800160010185558215610597579182015b8281111561059657825182559160200191906001019061057b565b5b5090506105a491906105a8565b5090565b5b808211156105c15760008160009055506001016105a9565b5090565b60006105d86105d3846108e3565b6108be565b9050828152602081018484840111156105f4576105f3610ade565b5b6105ff8482856109a7565b509392505050565b600082601f83011261061c5761061b610ad9565b5b813561062c8482602086016105c5565b91505092915050565b6000806040838503121561064c5761064b610ae8565b5b600083013567ffffffffffffffff81111561066a57610669610ae3565b5b61067685828601610607565b925050602083013567ffffffffffffffff81111561069757610696610ae3565b5b6106a385828601610607565b9150509250929050565b600080600080608085870312156106c7576106c6610ae8565b5b600085013567ffffffffffffffff8111156106e5576106e4610ae3565b5b6106f187828801610607565b945050602085013567ffffffffffffffff81111561071257610711610ae3565b5b61071e87828801610607565b935050604085013567ffffffffffffffff81111561073f5761073e610ae3565b5b61074b87828801610607565b925050606085013567ffffffffffffffff81111561076c5761076b610ae3565b5b61077887828801610607565b91505092959194509250565b61078d81610991565b82525050565b600061079e82610914565b6107a8818561091f565b93506107b88185602086016109b6565b6107c181610aed565b840191505092915050565b60006107d782610914565b6107e18185610930565b93506107f18185602086016109b6565b80840191505092915050565b600061080a60138361091f565b915061081582610afe565b602082019050919050565b6108298161099d565b82525050565b600061083b82846107cc565b915081905092915050565b600060208201905061085b6000830184610784565b92915050565b6000602082019050818103600083015261087b8184610793565b905092915050565b6000602082019050818103600083015261089c816107fd565b9050919050565b60006020820190506108b86000830184610820565b92915050565b60006108c86108d9565b90506108d48282610a1b565b919050565b6000604051905090565b600067ffffffffffffffff8211156108fe576108fd610aaa565b5b61090782610aed565b9050602081019050919050565b600081519050919050565b600082825260208201905092915050565b600081905092915050565b60006109468261099d565b91506109518361099d565b9250827fffffffffffffffffffffffffffffffffffffffffffffffffffffffffffffffff0382111561098657610985610a4c565b5b828201905092915050565b60008115159050919050565b6000819050919050565b82818337600083830152505050565b60005b838110156109d45780820151818401526020810190506109b9565b838111156109e3576000848401525b50505050565b60006002820490506001821680610a0157607f821691505b60208210811415610a1557610a14610a7b565b5b50919050565b610a2482610aed565b810181811067ffffffffffffffff82111715610a4357610a42610aaa565b5b80604052505050565b7f4e487b7100000000000000000000000000000000000000000000000000000000600052601160045260246000fd5b7f4e487b7100000000000000000000000000000000000000000000000000000000600052602260045260246000fd5b7f4e487b7100000000000000000000000000000000000000000000000000000000600052604160045260246000fd5b600080fd5b600080fd5b600080fd5b600080fd5b6000601f19601f8301169050919050565b7f4e6f6e20617574686f72697a6564207369676e0000000000000000000000000060008201525056fea2646970667358221220faddaa4b01603070a4aa0b10adb5d0c7e804523eed9a2cb89271ea064d16c8d864736f6c63430008070033",
  "immutableReferences": {},
  "source": "// SPDX-License-Identifier: GPL-3.0\npragma solidity >=0.4.25 <0.9.0;\n\ncontract TecV4 {\n    // address of the owner of the contract. To allow just the contract owner to write on writters mapping.\n    address private owner;\n\n    // Writters mapping that stores the ID of writters and sign for them.\n    // key: sign hashed with SHA256 Algorithm\n    // value: User ID at Firebase Firestore Database\n    mapping(string => string) writters;\n    \n    // writter counter\n    uint writtersSize;\n\n    // Certificates mapping to store a raw version of the certificate and the studentId.\n    // key: certificate string hashed with SHA256 Algorithm\n    // value: Student ID at Firebase Firestore Database\n    mapping(string => string) certificates;\n\n    //certificates counter\n    uint certificatesSize;\n\n    // Events for testing purposes and logs when we add a new writter and a new certificate.\n    event addSign(string newSign);\n    event addCertificate(string newCertificate);\n\n    // isOwner functions modifier that checks if the transaction sender address is the same as the contract owner.\n    modifier isOwner() {\n        require(msg.sender == owner, \"Caller is not owner\");\n        _;\n    }\n\n    // Function that sets the owner address and initialize counters.\n    constructor () {\n        owner = msg.sender;\n        writtersSize = 0;\n        certificatesSize = 0;\n    }\n\n    // Function that registry a new writter on the writters mapping.\n    function newWritter(string memory writterSign, string memory userId) public returns (uint) {\n        writters[writterSign] = userId;\n        writtersSize = writtersSize + 1;\n        emit addSign(writterSign);\n        return writtersSize;\n    }\n\n    // Function that validate a writter. Checking its appareance on the writters mapping (Key+Value).\n    function validateWritter(string memory writterSign, string memory writterId) view public returns (bool) {\n        return stringsEqual(writters[writterSign], writterId);\n    }\n\n\n    // Function that add a new certificate to the certificates mapping.\n    function newCertificate(\n      string memory writterId,\n      string memory writterSign,\n      string memory certificate,\n      string memory studentId\n    ) public returns (uint) {\n        //First we will check that the writter is authorized to add a new certificate.\n      require (stringsEqual(writters[writterSign], writterId), \"Non authorized sign\");\n      certificates[certificate] = studentId;\n      emit addCertificate(certificate);\n      certificatesSize = certificatesSize + 1;\n      return certificatesSize;\n    }\n\n    // Function that validate a writter. Checking its appareance on the writters mapping (Key+Value).\n    function validateCertificate(string memory studentId, string memory certificate) public view returns (bool) {\n       return stringsEqual(certificates[certificate], studentId);\n    }\n\n    // Auxiliar function to compare 2 strings with Solidity.\n    function stringsEqual(string memory _a, string memory _b) public pure returns (bool) {\n        return keccak256(abi.encodePacked(_a)) == keccak256(abi.encodePacked(_b));\n    }\n}\n",
  "sourcePath": "/Users/rafael.zavalaencora.com/Desktop/Blockchain/test-box/contracts/TecV4.sol",
  "compiler": {
    "name": "solc",
    "version": "0.8.7+commit.e28d00a7.Emscripten.clang"
  },
  "schemaVersion": "3.4.10",
  "updatedAt": "2022-11-29T17:08:21.766Z",
  "networkType": "ethereum",
  "devdoc": {
    "kind": "dev",
    "methods": {},
    "version": 1
  },
  "userdoc": {
    "kind": "user",
    "methods": {},
    "version": 1
  }
}